{
    "_format": "hh-sol-artifact-1",
    "contractName": "Staking",
    "sourceName": "contracts/Stacking.sol",
    "abi": [
        {
            "inputs": [
                {
                    "internalType": "address",
                    "name": "initialOwner",
                    "type": "address"
                }
            ],
            "stateMutability": "nonpayable",
            "type": "constructor"
        },
        {
            "inputs": [
                {
                    "internalType": "address",
                    "name": "owner",
                    "type": "address"
                }
            ],
            "name": "OwnableInvalidOwner",
            "type": "error"
        },
        {
            "inputs": [
                {
                    "internalType": "address",
                    "name": "account",
                    "type": "address"
                }
            ],
            "name": "OwnableUnauthorizedAccount",
            "type": "error"
        },
        {
            "anonymous": false,
            "inputs": [
                {
                    "indexed": true,
                    "internalType": "address",
                    "name": "previousOwner",
                    "type": "address"
                },
                {
                    "indexed": true,
                    "internalType": "address",
                    "name": "newOwner",
                    "type": "address"
                }
            ],
            "name": "OwnershipTransferred",
            "type": "event"
        },
        {
            "inputs": [
                {
                    "internalType": "address",
                    "name": "staker",
                    "type": "address"
                }
            ],
            "name": "calculateRewards",
            "outputs": [
                {
                    "internalType": "uint256",
                    "name": "",
                    "type": "uint256"
                }
            ],
            "stateMutability": "view",
            "type": "function"
        },
        {
            "inputs": [],
            "name": "deposit",
            "outputs": [],
            "stateMutability": "payable",
            "type": "function"
        },
        {
            "inputs": [],
            "name": "distributeRewards",
            "outputs": [],
            "stateMutability": "nonpayable",
            "type": "function"
        },
        {
            "inputs": [],
            "name": "owner",
            "outputs": [
                {
                    "internalType": "address",
                    "name": "",
                    "type": "address"
                }
            ],
            "stateMutability": "view",
            "type": "function"
        },
        {
            "inputs": [
                {
                    "internalType": "uint256",
                    "name": "tokenAmount",
                    "type": "uint256"
                }
            ],
            "name": "redeem",
            "outputs": [],
            "stateMutability": "nonpayable",
            "type": "function"
        },
        {
            "inputs": [],
            "name": "renounceOwnership",
            "outputs": [],
            "stateMutability": "nonpayable",
            "type": "function"
        },
        {
            "inputs": [],
            "name": "rewardInterval",
            "outputs": [
                {
                    "internalType": "uint256",
                    "name": "",
                    "type": "uint256"
                }
            ],
            "stateMutability": "view",
            "type": "function"
        },
        {
            "inputs": [],
            "name": "rewardRate",
            "outputs": [
                {
                    "internalType": "uint256",
                    "name": "",
                    "type": "uint256"
                }
            ],
            "stateMutability": "view",
            "type": "function"
        },
        {
            "inputs": [
                {
                    "internalType": "address",
                    "name": "",
                    "type": "address"
                }
            ],
            "name": "stakedAmount",
            "outputs": [
                {
                    "internalType": "uint256",
                    "name": "",
                    "type": "uint256"
                }
            ],
            "stateMutability": "view",
            "type": "function"
        },
        {
            "inputs": [
                {
                    "internalType": "uint256",
                    "name": "",
                    "type": "uint256"
                }
            ],
            "name": "stakers",
            "outputs": [
                {
                    "internalType": "address",
                    "name": "",
                    "type": "address"
                }
            ],
            "stateMutability": "view",
            "type": "function"
        },
        {
            "inputs": [
                {
                    "internalType": "address",
                    "name": "",
                    "type": "address"
                }
            ],
            "name": "stakingRewards",
            "outputs": [
                {
                    "internalType": "uint256",
                    "name": "",
                    "type": "uint256"
                }
            ],
            "stateMutability": "view",
            "type": "function"
        },
        {
            "inputs": [],
            "name": "token",
            "outputs": [
                {
                    "internalType": "contract LiquidStakingToken",
                    "name": "",
                    "type": "address"
                }
            ],
            "stateMutability": "view",
            "type": "function"
        },
        {
            "inputs": [],
            "name": "totalStaked",
            "outputs": [
                {
                    "internalType": "uint256",
                    "name": "",
                    "type": "uint256"
                }
            ],
            "stateMutability": "view",
            "type": "function"
        },
        {
            "inputs": [
                {
                    "internalType": "address",
                    "name": "newOwner",
                    "type": "address"
                }
            ],
            "name": "transferOwnership",
            "outputs": [],
            "stateMutability": "nonpayable",
            "type": "function"
        }
    ],
    "bytecode": "0x6080604052606460055562278d006006553480156200001d57600080fd5b506040516200302138038062003021833981810160405281019062000043919062000287565b80600073ffffffffffffffffffffffffffffffffffffffff168173ffffffffffffffffffffffffffffffffffffffff1603620000b95760006040517f1e4fbdf7000000000000000000000000000000000000000000000000000000008152600401620000b09190620002ca565b60405180910390fd5b620000ca816200014b60201b60201c565b5080604051620000da906200020f565b620000e69190620002ca565b604051809103906000f08015801562000103573d6000803e3d6000fd5b50600160006101000a81548173ffffffffffffffffffffffffffffffffffffffff021916908373ffffffffffffffffffffffffffffffffffffffff16021790555050620002e7565b60008060009054906101000a900473ffffffffffffffffffffffffffffffffffffffff169050816000806101000a81548173ffffffffffffffffffffffffffffffffffffffff021916908373ffffffffffffffffffffffffffffffffffffffff1602179055508173ffffffffffffffffffffffffffffffffffffffff168173ffffffffffffffffffffffffffffffffffffffff167f8be0079c531659141344cd1fd0a4f28419497f9722a3daafe3b4186f6b6457e060405160405180910390a35050565b611b3a80620014e783390190565b600080fd5b600073ffffffffffffffffffffffffffffffffffffffff82169050919050565b60006200024f8262000222565b9050919050565b620002618162000242565b81146200026d57600080fd5b50565b600081519050620002818162000256565b92915050565b600060208284031215620002a0576200029f6200021d565b5b6000620002b08482850162000270565b91505092915050565b620002c48162000242565b82525050565b6000602082019050620002e16000830184620002b9565b92915050565b6111f080620002f76000396000f3fe6080604052600436106100dd5760003560e01c8063bec4de3f1161007f578063f2fde38b11610059578063f2fde38b14610269578063f993185514610292578063fc0c546a146102cf578063fd5e6dd1146102fa576100dd565b8063bec4de3f1461020b578063d0e30db014610236578063db006a7514610240576100dd565b8063715018a6116100bb578063715018a6146101735780637b0a47ee1461018a578063817b1cd2146101b55780638da5cb5b146101e0576100dd565b8063499d7f96146100e257806364ab86751461011f5780636f4a2cd01461015c575b600080fd5b3480156100ee57600080fd5b5061010960048036038101906101049190610cc6565b610337565b6040516101169190610d0c565b60405180910390f35b34801561012b57600080fd5b5061014660048036038101906101419190610cc6565b61034f565b6040516101539190610d0c565b60405180910390f35b34801561016857600080fd5b506101716103bd565b005b34801561017f57600080fd5b50610188610522565b005b34801561019657600080fd5b5061019f610536565b6040516101ac9190610d0c565b60405180910390f35b3480156101c157600080fd5b506101ca61053c565b6040516101d79190610d0c565b60405180910390f35b3480156101ec57600080fd5b506101f5610542565b6040516102029190610d36565b60405180910390f35b34801561021757600080fd5b5061022061056b565b60405161022d9190610d0c565b60405180910390f35b61023e610571565b005b34801561024c57600080fd5b5061026760048036038101906102629190610d7d565b61075f565b005b34801561027557600080fd5b50610290600480360381019061028b9190610cc6565b610a0d565b005b34801561029e57600080fd5b506102b960048036038101906102b49190610cc6565b610a93565b6040516102c69190610d0c565b60405180910390f35b3480156102db57600080fd5b506102e4610aab565b6040516102f19190610e09565b60405180910390f35b34801561030657600080fd5b50610321600480360381019061031c9190610d7d565b610ad1565b60405161032e9190610d36565b60405180910390f35b60036020528060005260406000206000915090505481565b600080600260008473ffffffffffffffffffffffffffffffffffffffff1673ffffffffffffffffffffffffffffffffffffffff1681526020019081526020016000205490506000612710600554836103a79190610e53565b6103b19190610ec4565b90508092505050919050565b6103c5610b10565b60005b60078054905081101561051f576000600782815481106103eb576103ea610ef5565b5b9060005260206000200160009054906101000a900473ffffffffffffffffffffffffffffffffffffffff16905060006104238261034f565b905080600360008473ffffffffffffffffffffffffffffffffffffffff1673ffffffffffffffffffffffffffffffffffffffff16815260200190815260200160002060008282546104749190610f24565b92505081905550600160009054906101000a900473ffffffffffffffffffffffffffffffffffffffff1673ffffffffffffffffffffffffffffffffffffffff166340c10f1983836040518363ffffffff1660e01b81526004016104d8929190610f58565b600060405180830381600087803b1580156104f257600080fd5b505af1158015610506573d6000803e3d6000fd5b505050505050808061051790610f81565b9150506103c8565b50565b61052a610b10565b6105346000610b97565b565b60055481565b60045481565b60008060009054906101000a900473ffffffffffffffffffffffffffffffffffffffff16905090565b60065481565b600034116105b4576040517f08c379a00000000000000000000000000000000000000000000000000000000081526004016105ab9061104c565b60405180910390fd5b6000600260003373ffffffffffffffffffffffffffffffffffffffff1673ffffffffffffffffffffffffffffffffffffffff168152602001908152602001600020540361065f576007339080600181540180825580915050600190039060005260206000200160009091909190916101000a81548173ffffffffffffffffffffffffffffffffffffffff021916908373ffffffffffffffffffffffffffffffffffffffff1602179055505b34600260003373ffffffffffffffffffffffffffffffffffffffff1673ffffffffffffffffffffffffffffffffffffffff16815260200190815260200160002060008282546106ae9190610f24565b9250508190555034600460008282546106c79190610f24565b92505081905550600160009054906101000a900473ffffffffffffffffffffffffffffffffffffffff1673ffffffffffffffffffffffffffffffffffffffff166340c10f1933346040518363ffffffff1660e01b815260040161072b929190610f58565b600060405180830381600087803b15801561074557600080fd5b505af1158015610759573d6000803e3d6000fd5b50505050565b80600160009054906101000a900473ffffffffffffffffffffffffffffffffffffffff1673ffffffffffffffffffffffffffffffffffffffff166370a08231336040518263ffffffff1660e01b81526004016107bb9190610d36565b602060405180830381865afa1580156107d8573d6000803e3d6000fd5b505050506040513d601f19601f820116820180604052508101906107fc9190611081565b101561083d576040517f08c379a0000000000000000000000000000000000000000000000000000000008152600401610834906110fa565b60405180910390fd5b600081905080600260003373ffffffffffffffffffffffffffffffffffffffff1673ffffffffffffffffffffffffffffffffffffffff1681526020019081526020016000205410156108c4576040517f08c379a00000000000000000000000000000000000000000000000000000000081526004016108bb90611166565b60405180910390fd5b600160009054906101000a900473ffffffffffffffffffffffffffffffffffffffff1673ffffffffffffffffffffffffffffffffffffffff16639dc29fac33846040518363ffffffff1660e01b8152600401610921929190610f58565b600060405180830381600087803b15801561093b57600080fd5b505af115801561094f573d6000803e3d6000fd5b5050505080600260003373ffffffffffffffffffffffffffffffffffffffff1673ffffffffffffffffffffffffffffffffffffffff16815260200190815260200160002060008282546109a29190611186565b9250508190555080600460008282546109bb9190611186565b925050819055503373ffffffffffffffffffffffffffffffffffffffff166108fc829081150290604051600060405180830381858888f19350505050158015610a08573d6000803e3d6000fd5b505050565b610a15610b10565b600073ffffffffffffffffffffffffffffffffffffffff168173ffffffffffffffffffffffffffffffffffffffff1603610a875760006040517f1e4fbdf7000000000000000000000000000000000000000000000000000000008152600401610a7e9190610d36565b60405180910390fd5b610a9081610b97565b50565b60026020528060005260406000206000915090505481565b600160009054906101000a900473ffffffffffffffffffffffffffffffffffffffff1681565b60078181548110610ae157600080fd5b906000526020600020016000915054906101000a900473ffffffffffffffffffffffffffffffffffffffff1681565b610b18610c5b565b73ffffffffffffffffffffffffffffffffffffffff16610b36610542565b73ffffffffffffffffffffffffffffffffffffffff1614610b9557610b59610c5b565b6040517f118cdaa7000000000000000000000000000000000000000000000000000000008152600401610b8c9190610d36565b60405180910390fd5b565b60008060009054906101000a900473ffffffffffffffffffffffffffffffffffffffff169050816000806101000a81548173ffffffffffffffffffffffffffffffffffffffff021916908373ffffffffffffffffffffffffffffffffffffffff1602179055508173ffffffffffffffffffffffffffffffffffffffff168173ffffffffffffffffffffffffffffffffffffffff167f8be0079c531659141344cd1fd0a4f28419497f9722a3daafe3b4186f6b6457e060405160405180910390a35050565b600033905090565b600080fd5b600073ffffffffffffffffffffffffffffffffffffffff82169050919050565b6000610c9382610c68565b9050919050565b610ca381610c88565b8114610cae57600080fd5b50565b600081359050610cc081610c9a565b92915050565b600060208284031215610cdc57610cdb610c63565b5b6000610cea84828501610cb1565b91505092915050565b6000819050919050565b610d0681610cf3565b82525050565b6000602082019050610d216000830184610cfd565b92915050565b610d3081610c88565b82525050565b6000602082019050610d4b6000830184610d27565b92915050565b610d5a81610cf3565b8114610d6557600080fd5b50565b600081359050610d7781610d51565b92915050565b600060208284031215610d9357610d92610c63565b5b6000610da184828501610d68565b91505092915050565b6000819050919050565b6000610dcf610dca610dc584610c68565b610daa565b610c68565b9050919050565b6000610de182610db4565b9050919050565b6000610df382610dd6565b9050919050565b610e0381610de8565b82525050565b6000602082019050610e1e6000830184610dfa565b92915050565b7f4e487b7100000000000000000000000000000000000000000000000000000000600052601160045260246000fd5b6000610e5e82610cf3565b9150610e6983610cf3565b9250828202610e7781610cf3565b91508282048414831517610e8e57610e8d610e24565b5b5092915050565b7f4e487b7100000000000000000000000000000000000000000000000000000000600052601260045260246000fd5b6000610ecf82610cf3565b9150610eda83610cf3565b925082610eea57610ee9610e95565b5b828204905092915050565b7f4e487b7100000000000000000000000000000000000000000000000000000000600052603260045260246000fd5b6000610f2f82610cf3565b9150610f3a83610cf3565b9250828201905080821115610f5257610f51610e24565b5b92915050565b6000604082019050610f6d6000830185610d27565b610f7a6020830184610cfd565b9392505050565b6000610f8c82610cf3565b91507fffffffffffffffffffffffffffffffffffffffffffffffffffffffffffffffff8203610fbe57610fbd610e24565b5b600182019050919050565b600082825260208201905092915050565b7f4465706f736974206d7573742062652067726561746572207468616e207a657260008201527f6f00000000000000000000000000000000000000000000000000000000000000602082015250565b6000611036602183610fc9565b915061104182610fda565b604082019050919050565b6000602082019050818103600083015261106581611029565b9050919050565b60008151905061107b81610d51565b92915050565b60006020828403121561109757611096610c63565b5b60006110a58482850161106c565b91505092915050565b7f496e73756666696369656e7420746f6b656e2062616c616e6365000000000000600082015250565b60006110e4601a83610fc9565b91506110ef826110ae565b602082019050919050565b60006020820190508181036000830152611113816110d7565b9050919050565b7f496e73756666696369656e74207374616b65642062616c616e63650000000000600082015250565b6000611150601b83610fc9565b915061115b8261111a565b602082019050919050565b6000602082019050818103600083015261117f81611143565b9050919050565b600061119182610cf3565b915061119c83610cf3565b92508282039050818111156111b4576111b3610e24565b5b9291505056fea26469706673582212201c48a6e2a72ec2ea0c7ba64b1481cb3f337c3c28223c353d57966eaaca1a75eb64736f6c6343000814003360806040523480156200001157600080fd5b5060405162001b3a38038062001b3a8339818101604052810190620000379190620002c9565b806040518060400160405280601481526020017f4c6971756964205374616b696e6720546f6b656e0000000000000000000000008152506040518060400160405280600381526020017f4c535400000000000000000000000000000000000000000000000000000000008152508160039081620000b5919062000575565b508060049081620000c7919062000575565b505050600073ffffffffffffffffffffffffffffffffffffffff168173ffffffffffffffffffffffffffffffffffffffff16036200013f5760006040517f1e4fbdf70000000000000000000000000000000000000000000000000000000081526004016200013691906200066d565b60405180910390fd5b62000150816200019960201b60201c565b5033600660006101000a81548173ffffffffffffffffffffffffffffffffffffffff021916908373ffffffffffffffffffffffffffffffffffffffff160217905550506200068a565b6000600560009054906101000a900473ffffffffffffffffffffffffffffffffffffffff16905081600560006101000a81548173ffffffffffffffffffffffffffffffffffffffff021916908373ffffffffffffffffffffffffffffffffffffffff1602179055508173ffffffffffffffffffffffffffffffffffffffff168173ffffffffffffffffffffffffffffffffffffffff167f8be0079c531659141344cd1fd0a4f28419497f9722a3daafe3b4186f6b6457e060405160405180910390a35050565b600080fd5b600073ffffffffffffffffffffffffffffffffffffffff82169050919050565b6000620002918262000264565b9050919050565b620002a38162000284565b8114620002af57600080fd5b50565b600081519050620002c38162000298565b92915050565b600060208284031215620002e257620002e16200025f565b5b6000620002f284828501620002b2565b91505092915050565b600081519050919050565b7f4e487b7100000000000000000000000000000000000000000000000000000000600052604160045260246000fd5b7f4e487b7100000000000000000000000000000000000000000000000000000000600052602260045260246000fd5b600060028204905060018216806200037d57607f821691505b60208210810362000393576200039262000335565b5b50919050565b60008190508160005260206000209050919050565b60006020601f8301049050919050565b600082821b905092915050565b600060088302620003fd7fffffffffffffffffffffffffffffffffffffffffffffffffffffffffffffffff82620003be565b620004098683620003be565b95508019841693508086168417925050509392505050565b6000819050919050565b6000819050919050565b600062000456620004506200044a8462000421565b6200042b565b62000421565b9050919050565b6000819050919050565b620004728362000435565b6200048a62000481826200045d565b848454620003cb565b825550505050565b600090565b620004a162000492565b620004ae81848462000467565b505050565b5b81811015620004d657620004ca60008262000497565b600181019050620004b4565b5050565b601f8211156200052557620004ef8162000399565b620004fa84620003ae565b810160208510156200050a578190505b620005226200051985620003ae565b830182620004b3565b50505b505050565b600082821c905092915050565b60006200054a600019846008026200052a565b1980831691505092915050565b600062000565838362000537565b9150826002028217905092915050565b6200058082620002fb565b67ffffffffffffffff8111156200059c576200059b62000306565b5b620005a8825462000364565b620005b5828285620004da565b600060209050601f831160018114620005ed5760008415620005d8578287015190505b620005e4858262000557565b86555062000654565b601f198416620005fd8662000399565b60005b82811015620006275784890151825560018201915060208501945060208101905062000600565b8683101562000647578489015162000643601f89168262000537565b8355505b6001600288020188555050505b505050505050565b620006678162000284565b82525050565b60006020820190506200068460008301846200065c565b92915050565b6114a0806200069a6000396000f3fe608060405234801561001057600080fd5b50600436106100f55760003560e01c8063715018a611610097578063a9059cbb11610066578063a9059cbb14610262578063dd62ed3e14610292578063ee99205c146102c2578063f2fde38b146102e0576100f5565b8063715018a6146102005780638da5cb5b1461020a57806395d89b41146102285780639dc29fac14610246576100f5565b806323b872dd116100d357806323b872dd14610166578063313ce5671461019657806340c10f19146101b457806370a08231146101d0576100f5565b806306fdde03146100fa578063095ea7b31461011857806318160ddd14610148575b600080fd5b6101026102fc565b60405161010f919061101c565b60405180910390f35b610132600480360381019061012d91906110d7565b61038e565b60405161013f9190611132565b60405180910390f35b6101506103b1565b60405161015d919061115c565b60405180910390f35b610180600480360381019061017b9190611177565b6103bb565b60405161018d9190611132565b60405180910390f35b61019e6103ea565b6040516101ab91906111e6565b60405180910390f35b6101ce60048036038101906101c991906110d7565b6103f3565b005b6101ea60048036038101906101e59190611201565b610491565b6040516101f7919061115c565b60405180910390f35b6102086104d9565b005b6102126104ed565b60405161021f919061123d565b60405180910390f35b610230610517565b60405161023d919061101c565b60405180910390f35b610260600480360381019061025b91906110d7565b6105a9565b005b61027c600480360381019061027791906110d7565b610647565b6040516102899190611132565b60405180910390f35b6102ac60048036038101906102a79190611258565b61066a565b6040516102b9919061115c565b60405180910390f35b6102ca6106f1565b6040516102d7919061123d565b60405180910390f35b6102fa60048036038101906102f59190611201565b610717565b005b60606003805461030b906112c7565b80601f0160208091040260200160405190810160405280929190818152602001828054610337906112c7565b80156103845780601f1061035957610100808354040283529160200191610384565b820191906000526020600020905b81548152906001019060200180831161036757829003601f168201915b5050505050905090565b60008061039961079d565b90506103a68185856107a5565b600191505092915050565b6000600254905090565b6000806103c661079d565b90506103d38582856107b7565b6103de85858561084b565b60019150509392505050565b60006012905090565b600660009054906101000a900473ffffffffffffffffffffffffffffffffffffffff1673ffffffffffffffffffffffffffffffffffffffff163373ffffffffffffffffffffffffffffffffffffffff1614610483576040517f08c379a000000000000000000000000000000000000000000000000000000000815260040161047a90611344565b60405180910390fd5b61048d828261093f565b5050565b60008060008373ffffffffffffffffffffffffffffffffffffffff1673ffffffffffffffffffffffffffffffffffffffff168152602001908152602001600020549050919050565b6104e16109c1565b6104eb6000610a48565b565b6000600560009054906101000a900473ffffffffffffffffffffffffffffffffffffffff16905090565b606060048054610526906112c7565b80601f0160208091040260200160405190810160405280929190818152602001828054610552906112c7565b801561059f5780601f106105745761010080835404028352916020019161059f565b820191906000526020600020905b81548152906001019060200180831161058257829003601f168201915b5050505050905090565b600660009054906101000a900473ffffffffffffffffffffffffffffffffffffffff1673ffffffffffffffffffffffffffffffffffffffff163373ffffffffffffffffffffffffffffffffffffffff1614610639576040517f08c379a0000000000000000000000000000000000000000000000000000000008152600401610630906113b0565b60405180910390fd5b6106438282610b0e565b5050565b60008061065261079d565b905061065f81858561084b565b600191505092915050565b6000600160008473ffffffffffffffffffffffffffffffffffffffff1673ffffffffffffffffffffffffffffffffffffffff16815260200190815260200160002060008373ffffffffffffffffffffffffffffffffffffffff1673ffffffffffffffffffffffffffffffffffffffff16815260200190815260200160002054905092915050565b600660009054906101000a900473ffffffffffffffffffffffffffffffffffffffff1681565b61071f6109c1565b600073ffffffffffffffffffffffffffffffffffffffff168173ffffffffffffffffffffffffffffffffffffffff16036107915760006040517f1e4fbdf7000000000000000000000000000000000000000000000000000000008152600401610788919061123d565b60405180910390fd5b61079a81610a48565b50565b600033905090565b6107b28383836001610b90565b505050565b60006107c3848461066a565b90507fffffffffffffffffffffffffffffffffffffffffffffffffffffffffffffffff81146108455781811015610835578281836040517ffb8f41b200000000000000000000000000000000000000000000000000000000815260040161082c939291906113d0565b60405180910390fd5b61084484848484036000610b90565b5b50505050565b600073ffffffffffffffffffffffffffffffffffffffff168373ffffffffffffffffffffffffffffffffffffffff16036108bd5760006040517f96c6fd1e0000000000000000000000000000000000000000000000000000000081526004016108b4919061123d565b60405180910390fd5b600073ffffffffffffffffffffffffffffffffffffffff168273ffffffffffffffffffffffffffffffffffffffff160361092f5760006040517fec442f05000000000000000000000000000000000000000000000000000000008152600401610926919061123d565b60405180910390fd5b61093a838383610d67565b505050565b600073ffffffffffffffffffffffffffffffffffffffff168273ffffffffffffffffffffffffffffffffffffffff16036109b15760006040517fec442f050000000000000000000000000000000000000000000000000000000081526004016109a8919061123d565b60405180910390fd5b6109bd60008383610d67565b5050565b6109c961079d565b73ffffffffffffffffffffffffffffffffffffffff166109e76104ed565b73ffffffffffffffffffffffffffffffffffffffff1614610a4657610a0a61079d565b6040517f118cdaa7000000000000000000000000000000000000000000000000000000008152600401610a3d919061123d565b60405180910390fd5b565b6000600560009054906101000a900473ffffffffffffffffffffffffffffffffffffffff16905081600560006101000a81548173ffffffffffffffffffffffffffffffffffffffff021916908373ffffffffffffffffffffffffffffffffffffffff1602179055508173ffffffffffffffffffffffffffffffffffffffff168173ffffffffffffffffffffffffffffffffffffffff167f8be0079c531659141344cd1fd0a4f28419497f9722a3daafe3b4186f6b6457e060405160405180910390a35050565b600073ffffffffffffffffffffffffffffffffffffffff168273ffffffffffffffffffffffffffffffffffffffff1603610b805760006040517f96c6fd1e000000000000000000000000000000000000000000000000000000008152600401610b77919061123d565b60405180910390fd5b610b8c82600083610d67565b5050565b600073ffffffffffffffffffffffffffffffffffffffff168473ffffffffffffffffffffffffffffffffffffffff1603610c025760006040517fe602df05000000000000000000000000000000000000000000000000000000008152600401610bf9919061123d565b60405180910390fd5b600073ffffffffffffffffffffffffffffffffffffffff168373ffffffffffffffffffffffffffffffffffffffff1603610c745760006040517f94280d62000000000000000000000000000000000000000000000000000000008152600401610c6b919061123d565b60405180910390fd5b81600160008673ffffffffffffffffffffffffffffffffffffffff1673ffffffffffffffffffffffffffffffffffffffff16815260200190815260200160002060008573ffffffffffffffffffffffffffffffffffffffff1673ffffffffffffffffffffffffffffffffffffffff168152602001908152602001600020819055508015610d61578273ffffffffffffffffffffffffffffffffffffffff168473ffffffffffffffffffffffffffffffffffffffff167f8c5be1e5ebec7d5bd14f71427d1e84f3dd0314c0f7b2291e5b200ac8c7c3b92584604051610d58919061115c565b60405180910390a35b50505050565b600073ffffffffffffffffffffffffffffffffffffffff168373ffffffffffffffffffffffffffffffffffffffff1603610db9578060026000828254610dad9190611436565b92505081905550610e8c565b60008060008573ffffffffffffffffffffffffffffffffffffffff1673ffffffffffffffffffffffffffffffffffffffff16815260200190815260200160002054905081811015610e45578381836040517fe450d38c000000000000000000000000000000000000000000000000000000008152600401610e3c939291906113d0565b60405180910390fd5b8181036000808673ffffffffffffffffffffffffffffffffffffffff1673ffffffffffffffffffffffffffffffffffffffff16815260200190815260200160002081905550505b600073ffffffffffffffffffffffffffffffffffffffff168273ffffffffffffffffffffffffffffffffffffffff1603610ed55780600260008282540392505081905550610f22565b806000808473ffffffffffffffffffffffffffffffffffffffff1673ffffffffffffffffffffffffffffffffffffffff168152602001908152602001600020600082825401925050819055505b8173ffffffffffffffffffffffffffffffffffffffff168373ffffffffffffffffffffffffffffffffffffffff167fddf252ad1be2c89b69c2b068fc378daa952ba7f163c4a11628f55a4df523b3ef83604051610f7f919061115c565b60405180910390a3505050565b600081519050919050565b600082825260208201905092915050565b60005b83811015610fc6578082015181840152602081019050610fab565b60008484015250505050565b6000601f19601f8301169050919050565b6000610fee82610f8c565b610ff88185610f97565b9350611008818560208601610fa8565b61101181610fd2565b840191505092915050565b600060208201905081810360008301526110368184610fe3565b905092915050565b600080fd5b600073ffffffffffffffffffffffffffffffffffffffff82169050919050565b600061106e82611043565b9050919050565b61107e81611063565b811461108957600080fd5b50565b60008135905061109b81611075565b92915050565b6000819050919050565b6110b4816110a1565b81146110bf57600080fd5b50565b6000813590506110d1816110ab565b92915050565b600080604083850312156110ee576110ed61103e565b5b60006110fc8582860161108c565b925050602061110d858286016110c2565b9150509250929050565b60008115159050919050565b61112c81611117565b82525050565b60006020820190506111476000830184611123565b92915050565b611156816110a1565b82525050565b6000602082019050611171600083018461114d565b92915050565b6000806000606084860312156111905761118f61103e565b5b600061119e8682870161108c565b93505060206111af8682870161108c565b92505060406111c0868287016110c2565b9150509250925092565b600060ff82169050919050565b6111e0816111ca565b82525050565b60006020820190506111fb60008301846111d7565b92915050565b6000602082840312156112175761121661103e565b5b60006112258482850161108c565b91505092915050565b61123781611063565b82525050565b6000602082019050611252600083018461122e565b92915050565b6000806040838503121561126f5761126e61103e565b5b600061127d8582860161108c565b925050602061128e8582860161108c565b9150509250929050565b7f4e487b7100000000000000000000000000000000000000000000000000000000600052602260045260246000fd5b600060028204905060018216806112df57607f821691505b6020821081036112f2576112f1611298565b5b50919050565b7f4f6e6c79207374616b696e6720636f6e74726163742063616e206d696e740000600082015250565b600061132e601e83610f97565b9150611339826112f8565b602082019050919050565b6000602082019050818103600083015261135d81611321565b9050919050565b7f4f6e6c79207374616b696e6720636f6e74726163742063616e206275726e0000600082015250565b600061139a601e83610f97565b91506113a582611364565b602082019050919050565b600060208201905081810360008301526113c98161138d565b9050919050565b60006060820190506113e5600083018661122e565b6113f2602083018561114d565b6113ff604083018461114d565b949350505050565b7f4e487b7100000000000000000000000000000000000000000000000000000000600052601160045260246000fd5b6000611441826110a1565b915061144c836110a1565b925082820190508082111561146457611463611407565b5b9291505056fea2646970667358221220d4f78a35f7827fbbaad133d72f4e3623d22fff0e4f050fce1807b79b03bed18864736f6c63430008140033",
    "linkReferences": {},
    "deployedLinkReferences": {}
}